:100000000C9461000C946B000C946B000C946B00CE
:100010000C946B000C946B000C946B000C946B00B4
:100020000C946B000C946B000C946B000C946B00A4
:100030000C946B000C946B000C946B000C946B0094
:100040000C946B000C946B000C946B000C946B0084
:100050000C946B000C94D0010C946B000C946B000E
:100060000C946B000C946B0008000000BE922449B5
:10007000123EABAAAA2ABECDCCCC4C3E00000080DA
:10008000BEABAAAAAA3E00000000BF000000803F4D
:100090000000000000084178D3BB4387D1133D190D
:1000A0000E3CC3BD4282AD2B3E68EC8276BED98F3A
:1000B000E1A93E4C80EFFFBE01C4FF7F3F0000007E
:1000C000000011241FBECFEFD8E0DEBFCDBF0E94DD
:1000D0008C000C94EA040C940000F894EAE7F0E039
:1000E000108210927B00ACE7B0E08C9180648C931E
:1000F0008C9180628C938081876080838081806214
:100100008083808188608083808180688083808113
:1001100080648083789408958FEF84B983E08AB9EE
:100120000E946D00FFCFCF92DF92EF92FF920F936C
:100130001F93CF93DF93BC01990F880B990B0E94FB
:1001400020039B01AC0160E070E080E893E40E9432
:10015000760220E030E040E85FE30E94040220E005
:1001600030E44CE156E40E9420040E94D8036B0165
:100170007C0129E537E44CEB53E30E942004A701FE
:1001800096010E94200423E73FE745E759E30E94D8
:100190000502A70196010E9420042BEE3FEF43E9E0
:1001A0005AE30E9405029B01AC0160E070E080E828
:1001B0009FE30E94760223E333E948E853E40E9478
:1001C00004028B01D82FC92F20E030E0A9010E9442
:1001D000710287FF04C000E010E0D6ECC2E4B80171
:1001E0008D2F9C2FDF91CF911F910F91FF90EF905A
:1001F000DF90CF90089521E030E0EAE0F0E0BF0129
:100200000E94C204CB01009719F02F5F3F4FF7CF38
:10021000C90108958130910511F481E003C002976E
:1002200011F482E08BB96115710511F482E82CC0DC
:100230006130710511F48BEB27C06230710511F448
:1002400085E022C06330710511F481E91DC064307E
:10025000710511F488EB18C06530710511F480ED5B
:1002600013C06630710511F480EC0EC06730710563
:1002700011F48BE909C06830710511F415B80895BF
:100280006930710511F488E985B90895AF92BF927C
:10029000CF92DF92EF92FF920F931F93CF93DF9352
:1002A000CDB7DEB7F82EE92ECDB6DEB60E94FB0044
:1002B0009C018DB79EB7821B930B0FB6F8949EBF1F
:1002C0000FBE8DBF0DB71EB70F5F1F4FF801E20FB6
:1002D000F31F4AE0A42EB12CE017F10749F08F2D4F
:1002E0009E2DB5010E94D6048293F62EE72EF4CF00
:1002F0002230310511F534E6E32EF12CF80160814E
:1003000070E082E090E00E940A0187EE93E001979E
:10031000F1F700C00000F801618170E081E090E039
:100320000E940A0187EE93E00197F1F700C00000F8
:1003300091E0E91AF10811F723C02130310501F5E8
:1003400084E6E82EF12C92E0A92E22E8B22EABB87A
:10035000B5B8E7EEF3E03197F1F700C00000F8011F
:10036000608170E081E090E00E940A0187EE93E0F6
:100370000197F1F700C0000091E0E91AF10839F7A0
:100380000FB6F894DEBE0FBECDBEDF91CF911F91A8
:100390000F91FF90EF90DF90CF90BF90AF900895B6
:1003A0001F920F920FB60F9211242F933F934F93EA
:1003B0005F936F937F938F939F93AF93BF93EF93CD
:1003C000FF93F8948091790090E00E94930020E0E0
:1003D00030E040EA50E40E9404020E94E802CB01AF
:1003E0000E9446017894FF91EF91BF91AF919F9148
:1003F0008F917F916F915F914F913F912F910F90CE
:100400000FBE0F901F9018955058BB27AA270E9427
:100410001C020C9496030E94880338F00E948F03FC
:1004200020F039F49F3F19F426F40C9485030EF460
:10043000E095E7FB0C947F03E92F0E94A70358F394
:10044000BA17620773078407950720F079F4A6F5B9
:100450000C94C9030EF4E0950B2EBA2FA02D0B01BE
:10046000B90190010C01CA01A0011124FF27591BF9
:1004700099F0593F50F4503E68F11A16F040A22FFF
:10048000232F342F4427585FF3CF46953795279570
:10049000A795F0405395C9F77EF41F16BA0B620B6F
:1004A000730B840BBAF09150A1F0FF0FBB1F661FB6
:1004B000771F881FC2F70EC0BA0F621F731F841FF9
:1004C00048F4879577956795B795F7959E3F08F01F
:1004D000B0CF9395880F08F09927EE0F97958795E1
:1004E00008950E945B0308F481E008950E948A0247
:1004F0000C9496030E948F0358F00E94880340F0EA
:1005000029F45F3F29F00C947F0351110C94CA0326
:100510000C9485030E94A70368F39923B1F3552334
:1005200091F3951B550BBB27AA2762177307840706
:1005300038F09F5F5F4F220F331F441FAA1FA9F39C
:1005400035D00E2E3AF0E0E832D091505040E6958A
:10055000001CCAF72BD0FE2F29D0660F771F881FEB
:10056000BB1F261737074807AB07B0E809F0BB0BDE
:10057000802DBF01FF2793585F4F3AF09E3F5105F2
:1005800078F00C947F030C94CA035F3FE4F3983E29
:10059000D4F3869577956795B795F7959F5FC9F7DB
:1005A000880F911D9695879597F90895E1E0660F5C
:1005B000771F881FBB1F621773078407BA0720F0D5
:1005C000621B730B840BBA0BEE1F88F7E09508953E
:1005D0000E94EF026894B1110C94CA0308950E941E
:1005E000AF0388F09F5798F0B92F9927B751B0F013
:1005F000E1F0660F771F881F991F1AF0BA95C9F7A7
:1006000014C0B13091F00E94C903B1E008950C9478
:10061000C903672F782F8827B85F39F0B93FCCF32B
:10062000869577956795B395D9F73EF49095809523
:10063000709561957F4F8F4F9F4F0895E89409C043
:1006400097FB3EF490958095709561957F4F8F4F05
:100650009F4F9923A9F0F92F96E9BB279395F6951B
:10066000879577956795B795F111F8CFFAF4BB0F99
:1006700011F460FF1BC06F5F7F4F8F4F9F4F16C0FD
:10068000882311F096E911C0772321F09EE8872F87
:10069000762F05C0662371F096E8862F70E060E043
:1006A0002AF09A95660F771F881FDAF7880F9695BC
:1006B000879597F90895990F0008550FAA0BE0E860
:1006C000FEEF16161706E807F907C0F01216130614
:1006D000E407F50798F0621B730B840B950B39F454
:1006E0000A2661F0232B242B252B21F408950A26BA
:1006F00009F4A140A6958FEF811D811D089597F9FA
:100700009F6780E870E060E008959FEF80EC0895B7
:1007100000240A94161617061806090608950024E0
:100720000A9412161306140605060895092E03945A
:10073000000C11F4882352F0BB0F40F4BF2B11F4CE
:1007400060FF04C06F5F7F4F8F4F9F4F089557FD2D
:100750009058440F551F59F05F3F71F04795880F2F
:1007600097FB991F61F09F3F79F0879508951216C6
:1007700013061406551FF2CF4695F1DF08C0161672
:1007800017061806991FF1CF869571056105089423
:100790000895E894BB2766277727CB0197F908953A
:1007A00016F00C948D040C94850368940C947F03CC
:1007B0000E94AF03A8F39923C1F3AEF3DF93CF9365
:1007C0001F930F93FF92C92FDD2788232AF02197CB
:1007D000660F771F881FDAF720E030E040E85FEB14
:1007E0009FE3883920F0803E38F021968F770E9471
:1007F0000502E8E6F0E004C00E940502E5E9F0E049
:100800000E949B048B01BE01EC01FB2E6F57710906
:100810007595771F880B990B0E94200328E132E71A
:1008200041E35FE30E943304AF2D9801AE01FF90D6
:100830000F911F91CF91DF910E941C020C9496039F
:100840000E9433040C9496030E94880338F00E949F
:100850008F0320F0952311F00C947F030C948503F3
:1008600011240C94CA030E94A70370F3959FC1F34F
:10087000950F50E0551F629FF001729FBB27F00D4E
:10088000B11D639FAA27F00DB11DAA1F649F6627A3
:10089000B00DA11D661F829F2227B00DA11D621FF2
:1008A000739FB00DA11D621F839FA00D611D221FAC
:1008B000749F3327A00D611D231F849F600D211D90
:1008C000822F762F6A2F11249F5750409AF0F1F013
:1008D00088234AF0EE0FFF1FBB1F661F771F881F7C
:1008E00091505040A9F79E3F510580F00C947F0332
:1008F0000C94CA035F3FE4F3983ED4F38695779552
:100900006795B795F795E7959F5FC1F7FE2B880F21
:10091000911D9695879597F908959F3F31F09150D5
:1009200020F4879577956795B795880F911D9695D3
:10093000879597F90895DF93CF931F930F93FF92B5
:10094000EF92DF927B018C01689406C0DA2EEF01F2
:100950000E943304FE01E894A591259135914591BB
:100960005591A6F3EF010E941C02FE019701A80118
:10097000DA9469F7DF90EF90FF900F911F91CF917C
:10098000DF910895AA1BBB1B51E107C0AA1FBB1F23
:10099000A617B70710F0A61BB70B881F991F5A950B
:1009A000A9F780959095BC01CD01089597FB072E7E
:1009B00016F4009407D077FD09D00E94C20407FC0A
:1009C00005D03EF4909581959F4F0895709561955F
:0809D0007F4F0895F894FFCF5A
:00000001FF
